:1000000000308A00082B00008E30F7004008F8000E
:100010003F08F900FA01F808031D18287908F800CC
:10002000F9010830F702F808031D1828F701202805
:100030000310F81B1F28F90DF80DF7031828F81303
:100040008A110A127C2B4B0803199328D3004F08FE
:1000500003199328D307031834287F30D302031CD5
:1000600093280319932838288130D307031893283D
:100070005308F700F801F901FA014C08D700D71727
:100080004D08D6004E08D5001830D300D401551CB9
:1000900061285208FA07031C5328F90A031D532844
:1000A000F80A0319D4175108F907031C5A28F80A4B
:1000B0000319D4175008CD00CD174D08F8070318C1
:1000C000D417D40DF80CF90CFA0CD70CD60CD50CAF
:1000D0000310D30B46280130F70703189328F81BA9
:1000E0007828D70DFA0DF90DF80DF70303199328A9
:1000F000D71F8928FA0A031D8928F90A031D8928B0
:10010000F80A031D8928F80CF90CFA0CF70A0319F0
:1001100093284C08D4005008D406D41F9128F8170F
:100120009728F8139728F701F801F901FA0100342C
:10013000470803195D29D3004B0803195D29D30231
:10014000031CA7287F30D30703185D29AD28813011
:10015000D302031C5D2903195D295308F700F80138
:10016000F901FA01D2014808D100D1174908D0009D
:100170004A08CF001930D3004E08CF020318D02808
:100180000130D0020318D028D1020318D028D2029F
:100190000318D028D20AD10AD00A4E08CF07022964
:1001A0004D08D0020318EB280130D1020318EB28C8
:1001B000D2020318EB28D20AD10A4D08D0074E0804
:1001C000CF07031C0229D00A031D0229D10A031DEF
:1001D0000229D20A02294C088038D10203180129C9
:1001E0000130D20203180129D20A4C088038D10705
:1001F0004D08D007031CDF28D10A031DDF28D20ACF
:10020000DF287A14D30B052910290310CF0DD00D48
:10021000D10DD20D0310FA0DF90DF80DD40DBC2837
:10022000541C18290310F80CF90CFA0CD40C1B29D7
:10023000F70303195D29D41B44290310CF0DD00DFA
:10024000D10DD20D4E08CF02031830290130D00253
:1002500003183029D10203183029D202031C532974
:100260004D08D00203183B290130D10203183B2965
:10027000D202031C53294C088038D10203184429A8
:100280000130D202031C5329FA0A031D5329F90A2B
:10029000031D5329F80A031D5329F70A03195D2981
:1002A000F80CF90CFA0C4808D3004C08D306D31FFD
:1002B0005B29F8176129F8136129F701F801F901A1
:1002C000FA018A110A12A92B4B08B63CCB00FA019D
:1002D0004C08CF00CC170310CC0CCD0CCE0CFA0C74
:1002E000F90CF80CF70CCB0B6B29CF1F8229F709FF
:1002F000F809F909FA09F70A0319F80A0319F90ABA
:100300000319FA0A8A110A120F2AF701F801F901F2
:10031000FA01D901DA01DB01DC015808570456045F
:1003200055040319C3292030DD000310D10DD20D6F
:10033000D30DD40DD90DDA0DDB0DDC0D58085C02A0
:10034000031DAC2957085B02031DAC2956085A024D
:10035000031DAC2955085902031CBD295508D902B3
:100360005608031C560FDA025708031C570FDB020E
:100370005808031C580FDC020314F70DF80DF90D93
:10038000FA0DDD0B95295930840083130034831650
:10039000091083120910CD014D08073C031CE929FF
:1003A0004C088039031DD9298316891083128910BE
:1003B000DD2983168910831289140310CC0D83164E
:1003C0000910831209148316091083120910CD0A2B
:1003D000CC29003483160911831209110830F70063
:1003E000F70BF0298316091183120915003442080E
:1003F000CE004108CD004008CC003F08CB00D20120
:10040000D1014830D0008530CF0023207A08CE00BB
:100410007908CD007808CC007708CB0064297A08E9
:10042000CA007908C9007808C8007708C7004A08D8
:10043000D4004908D3004808D2004708D100D801A9
:10044000D7010330D600E830D50085217708C300F6
:100450004A08D4004908D3004808D2004708D10010
:10046000D801D7010330D600E830D5008521000837
:10047000CB00840A0008CC00840A0008CD00840A5E
:100480000008CE00D0010408CF005010831B501488
:100490004E08D4004D08D3004C08D2004B08D100C0
:1004A000D801D701D6016430D50085214F088400DA
:1004B0008313501883177708C4004A08D4004908EA
:1004C000D3004808D2004708D100D801D701D6018F
:1004D0006430D50085210008CB00840A0008CC00D8
:1004E000840A0008CD00840A0008CE00D001040868
:1004F000CF005010831B50144E08D4004D08D30079
:100500004C08D2004B08D100D801D701D6010A30DF
:10051000D50085214F08840083135018831777086E
:10052000C5004A08D4004908D3004808D20047084B
:10053000D100D801D701D6016430D500852100084B
:10054000CB00840A0008CC00840A0008CD00840A8D
:100550000008CE00FD308407D0010408CF00501001
:10056000831B50144E08D4004D08D3004C08D20011
:100570004B08D100D801D701D6010A30D50085211A
:100580000008F700840A0008F800840A0008F9004F
:10059000840A0008FA004F08840083135018831758
:1005A0007708C600C3080319E12A3408CC00C72124
:1005B00020304307840083130008CB00CC00C72100
:1005C000EA213508CC00C7212A3044078400831370
:1005D0000008CB00CC00C721EA213608CC00C72197
:1005E00020304507840083130008CB00CC00C721CE
:1005F000EA213708CC00C721203046078400831346
:100600000008CB00CC00C721EA218A110A12BA2BBC
:10061000840183131F308305831603170908C0392B
:10062000890003131F129F12003003178800073040
:1006300083128700FF308800890183160313970116
:1006400003178501831203133812380883168700B5
:10065000C0308312A000F930A100A430A200B03055
:10066000A3009930A4009230A5008230A600F83093
:10067000A7008030A8009030A9004030AA0079304F
:10068000AB002430AC003030AD001930AE00123079
:10069000AF000230B0007830B100B2011030B300CA
:1006A0000130B4000230B5000430B6000830B700A5
:1006B000FF30B8008316890183121F179F17831616
:1006C0009F1783121F140030F8001F08C3397804E5
:1006D0009F001030F700F70B6B2B00009F149F1842
:1006E0006F2B83161E088312BD001E08BE003E0835
:1006F000C0003D08BF0004287708BF007808C0008C
:100700007908C1007A08C200CE007908CD007808C7
:10071000CC007708CB00D201D1014830D000843022
:10072000CF0023207708C3007808C4007908C500EB
:100730007A08C600CA007908C9007808C800770896
:10074000C700CE01C030CD007F30CC008830CB0058
:1007500098287A08BC007908BB007808BA007708A6
:10076000B9003C08C2003B08C1003A08C000390883
:08077000BF00F7296E2B6300A6
:04400E00E22FFF3F5F
:00000001FF
;PIC16F887
